S01F000044726F7773792044726976657220446574656374696F6E2E7372656332
S11300000C942A000C9447000C9447000C9447006D
S11300100C9447000C940C010C9447000C9447007A
S11300200C9447000C9447000C9447000C94470030
S11300300C9447000C9447000C9447000C94470020
S11300400C9447000C9447000C9447000C94470010
S11300500C94470011241FBECFE5D8E0DEBFCDBF0E
S113006011E0A0E6B0E0E8ECF6E002C005900D92E5
S1130070A837B107D9F721E0A8E7B1E001C01D9284
S1130080AE37B207E1F70E944C000C9462030C9463
S113009000008C98949A08950E946F0164E670E0C1
S11300A082E00E9472010E942B030E944900809109
S11300B07C018E7F80937C0180917C018D7F809375
S11300C07C010E94DB020E943D038BE484BD89B75E
S11300D0806489BF85B5876085BD0E942E030E9418
S11300E0A6010E9403020E945B010E943A030E943F
S11300F0830284E690E00E945902789480917C0106
S113010081FF7FC080917C018D7F80937C018091F1
S11301107C0180FF18C080917C018E7F80937C01DC
S113012081E00E940B0383E790E00E94590264E699
S113013070E085E00E94720188EE93E00E948801DD
S113014081E00E940B03839929C081E00E940B0384
S113015084E890E00E945902AA9A64E670E082E082
S11301600E947201609162007091630085E990E0E1
S11301700E94BB0181E00E940B038FE990E00E9482
S11301805902A89A85B78F7885BF85B7806885BFDF
S1130190889585B78F7785BFF894FFCF829B31C050
S11301A081E00E940B0380EB90E00E94590264E618
S11301B070E082E00E947201AA9A0E94350380EDE9
S11301C097E00E9488010E9437036091600070915B
S11301D0610085E990E00E94BB0181E00E940B036D
S11301E08FE990E00E945902A89A85B78F7885BF5D
S11301F085B7806885BF889585B78F7785BFF89464
S1130200FFCF85B78F7885BF85B7806885BF889510
S113021085B78F7785BF72CF1F920F920FB60F925B
S113022011248F938BE484BD80917B018F5F809335
S11302307B01883C18F010927B0108C0813041F0AA
S113024028F0853019F0863021F402C0A89A01C044
S1130250A89880917A018F5F80937A01843138F075
S113026080917C01826080937C0110927A0180915C
S113027079018F5F803518F48093790104C010925E
S1130280790110927801849B10C0809178018F5F6E
S113029080937801843048F080917C018160809360
S11302A07C0110927901109278018F910F900FBE0A
S11302B00F901F9018958B98939A81E00E940B03DE
S11302C08EED90E00E945902839BFECF8BEE90E06E
S11302D00E94590288EE93E00E9488010895A19A31
S11302E0A99808950F931F93CF93882369F08B01E6
S11302F0C82FA99AC8010E948801A99884E690E0B1
S11303000E948801C150A9F7CF911F910F910895C0
S1130310009769F020E030E0E7E2F7E03197F1F789
S113032000C000002F5F3F4F28173907A9F7089531
S1130330009759F020E030E042E04A95F1F700C020
S11303402F5F3F4F28173907B9F708958A98929A73
S1130350089581E00E940B038EEE90E00E94590202
S1130360089588E591E00E944F030E944B038B346B
S1130370E1F781E008950F931F93CF93DF93EC018E
S11303808B0181E00E940B0387EF90E00E945902E9
S113039082E491E00E944F03CE010E944F0384E067
S11303A091E00E944F030E944B038E33E1F786E0F5
S11303B091E00E944F03C8010E944F0387E091E03F
S11303C00E944F038AE10E9447030E944B038B342F
S11303D041F08534D1F70E94B101811102C00E941D
S11303E0A90183E291E00E9459020E94B10188EEC2
S11303F093E00E94880181E00E940B03DF91CF917A
S11304001F910F910895CF9381E00E940B0386E220
S113041091E00E9459020E94B101C82F8823D1F0B3
S11304208DE491E00E944F030E944B038B34E1F76B
S11304308FE291E00E944F030E944B038B34E1F75B
S113044083E291E00E94590288EE93E00E948801C1
S1130450C1E002C00E94A9018C2FCF910895C398D6
S113046081E090E00E949801C39A0895CF93C82F29
S113047088B39C2F907F8F70892B88BB0E942F029A
S113048028B330E1C39FC0011124922F9F70892BA0
S113049088BB0E942F028EEE92E00E949801CF91B9
S11304A00895C2980E9436020895C29A0E943602A4
S11304B008950F931F93CF93DF93FC012081222390
S11304C0E9F0EC0100EC10E880917D01803919F02D
S11304D0803D21F005C000937D0102C010937D0191
S11304E080917D0191E0980F90937D010E945102CB
S11304F089910E94550288818111E6CFDF91CF91C5
S11305001F910F91089581E00E94510280E8809329
S11305107D01089580E80E94510280E880937D0166
S1130520089580EC0E94510280EC80937D0108952F
S1130530DF92EF92FF920F931F93CF93DF938CE59B
S113054091E00E9459020E949102D3E00F2EF8EC30
S1130550DF2EF02DE12C0F2EF0ECFF2EF02D1FC01E
S11305608C2F0E9451028EE20E94550280E48C0F6F
S1130570883020F4C8010E94880104C089E190E019
S11305800E9488018C2F0E94510280E20E94550231
S1130590CF5F0E5C1F4FC03D19F7D15021F00D2DD8
S11305A01E2DCF2DDDCFDF91CF911F910F91FF90A5
S11305B0EF90DF90089587B38C6F87BB88B3837007
S11305C088BB88E290E00E94880183E30E94510284
S11305D085E090E00E94880183E30E94510284EF49
S11305E091E00E94980182E30E94510284EF91E01D
S11305F00E94980188E20E9451028CE00E945102FC
S113060086E00E94510281E00E9451020E9483020E
S11306100E9498020895CF93DF93D82F882319F06E
S1130620813021F005C00E948A0202C00E9491021A
S1130630C0E180E20E945502C150D9F7DD2319F0D0
S1130640D13021F005C00E948A0202C00E949102AA
S1130650DF91CF910895A09AA898089584B38861F2
S113066084BB85B3877E85BB0895AB9A0895AB9808
S1130670AC980895A29AAA9808958AB188618AB913
S113068080B5866880BD8FE289B910BC08955D9BF2
S1130690FECF8CB908955F9BFECF8CB10895CF93A4
S11306A0DF93EC018881882351F021960E9447034F
S11306B081E090E00E94880189918111F7CFDF9158
S10B06C0CF910895F894FFCFD7
S11306C8B100BF0020534D41525420564548494378
S11306D84C4500506C656173652057616B65205506
S11306E8702E2E00416C636F686F6C2044657465CE
S11306F8637465640050485F4E554D424552002A64
S11307082A2A2A424C4F434B45442A2A2A2A2A0099
S113071820466972652044657465637465640041A4
S11307286C636F686F6C20436F6E73756D656420BE
S1130738627920746865206472697665720053650D
S11307486E736F7220496E69743A004F6B004641AC
S1130758494C454420210053656E64696E672053F3
S11307684D533A00220D002E204175746F6D61744B
S1130778656420534D532042793A20444444264129
S1130788532E004F4B0047534D3A20003B0D004178
S1130798542B434E4D493D322C322C322C302C30C4
S11307A80D0041542B434D47533D22300041542BF7
S11307B8434D47463D310D0041540D002020494E1C
S11307C8495449414C495A494E4700202020202089
S10B07D8202020202020000055
S9030000FC
